:020000040800F2
:10000000500C00201D03000875270008BD260008BD
:1000100071270008E1240008653600080000000090
:10002000000000000000000000000000FD2B0008A0
:100030003926000800000000A32A0008AD2F0008A0
:1000400037030008370300083703000837030008A8
:100050003703000837030008370300083703000898
:100060003703000837030008370300083703000888
:100070003703000837030008370300083703000878
:100080003703000837030008370300083703000868
:100090003703000837030008370300083703000858
:1000A0003703000837030008370300083703000848
:1000B0003703000837030008370300083703000838
:1000C0003703000837030008370300083703000828
:1000D000370300088D310008370300083703000894
:1000E0003703000837030008370300083703000808
:1000F00037030008370300083703000837030008F8
:1001000037030008370300083703000837030008E7
:1001100037030008370300083703000837030008D7
:1001200037030008370300083703000837030008C7
:1001300037030008370300083703000837030008B7
:1001400037030008370300083703000837030008A7
:100150003703000837030008370300083703000897
:100160003703000837030008370300083703000887
:100170003703000837030008370300083703000877
:10018000370300083703000800F002F800F0B6F863
:100190000AA090E8000C82448344AAF10107DA45E2
:1001A00001D100F0ABF8AFF2090EBAE80F0013F07E
:1001B000010F18BFFB1A43F001031847F03E00007F
:1001C000103F00000A444FF0000C10F8013B13F000
:1001D000070408BF10F8014B1D1108BF10F8015BA0
:1001E000641E05D010F8016B641E01F8016BF9D193
:1001F00013F0080F1EBF10F8014BAD1C0C1B09D1EA
:100200006D1E58BF01F801CBFAD505E014F8016B5B
:1002100001F8016B6D1EF9D59142D6D370470000ED
:100220000023002400250026103A28BF78C1FBD8FF
:10023000520728BF30C148BF0B6070476E2900F0DD
:100240005B82702900F0A583662903F09C826529F2
:1002500003F09982672903F09682612903F0958261
:1002600003681B0A28BF41F08001692900F0088259
:10027000642900F00582752900F002826F2900F0E0
:100280003283782900F07183E92900F0CD82E429D6
:1002900000F0CA82F52900F0C782EF2900F02F8311
:1002A000F82900F070830368DB0928BF41F0800162
:1002B000632901F0C380732901F0C880E32901F0AC
:1002C000D380F32901F0D880002070471FB503F0D8
:1002D00055FA9DE8030000F03BF901F027F904000E
:1002E0000020002103F034FA401C6060002000214F
:1002F00003F018FAE0601FBD10B510BD01F0E8F87A
:100300001146FFF7E3FF03F0D1F901F0C5F903B49B
:10031000FFF7F2FF03BC01F0F5F900000948804740
:1003200009480047FEE7FEE7FEE7FEE7FEE7FEE7D7
:10033000FEE7FEE7FEE7FEE704480549054A064BEF
:1003400070470000B12F0008890100085006002006
:10035000500C0020500800205008002070B50646C0
:1003600000F0DAF8056806F10B0020F00704B4424B
:100370009CBF002070BD2B466A68BAB11068A042CD
:1003800010D304F1080188423CBF5068586007D37D
:100390005168101941601168091B016058601460B0
:1003A000101D70BD13465268002AE7D12146284629
:1003B00000F0BAF80028DED170BD70B50446051F04
:1003C00000F0AAF80068002C14BF446870BD002C2F
:1003D00018BFAC423CBF20466468F8D301680A18D5
:1003E000AA4218BF456003D12A680546114401603E
:1003F00028684119A1421CBF6C6070BD61686960CA
:1004000021680844286070BDB2F120030AD5C2F10A
:10041000200301FA02F120FA03F300FA02F041EAA4
:100420000301704700FA03F14FF000007047B2F18A
:1004300020030AD5C2F1200320FA02F001FA03F3E7
:1004400021FA02F140EA0300704721FA03F04FF06D
:10045000000170477CB51D4616460C00009001D087
:100460002044401E074B7B442A4669460190304693
:1004700000F05BF905461CB10020694600F068F900
:1004800028467CBDF1020000032A40F2308010F0C3
:10049000030C00F0158011F8013BBCF1020F62441F
:1004A00098BF11F801CB00F8013B38BF11F8013BB0
:1004B000A2F1040298BF00F801CB38BF00F8013B5D
:1004C00011F0030300F03483083AC0F0088051F8BB
:1004D000043B083A51F804CBA0E80810F5E7121DD8
:1004E0005CBF51F8043B40F8043BAFF30080D207F7
:1004F00024BF11F8013B11F801CB48BF11F8012BC3
:1005000024BF00F8013B00F801CB48BF00F8012BE5
:10051000704770477047704700487047F8050020E3
:10052000704770477047704738B504460A46002048
:100530006946AFF30080002808BF38BD0246009925
:10054000204600F02BFB012038BD012000F0B8BF91
:10055000F8B5AFF30080054600200C46102000BF20
:100560000646A819A0420DD9324669460020AFF3CD
:100570000080070008BF00F0A3FF0098A04218BF4A
:100580000546C419FFF7C8FF05600746F01D20F0B7
:1005900007004619284600F00AF8B44208BFF8BD23
:1005A000A21B31463868BDE8F84000F0F7BA0021D8
:1005B0000160C0E9011070471020704770B5044613
:1005C00085690068C10601D5302600E02026C007F5
:1005D00007D070BDD4E9012130469047206A401C05
:1005E00020626D1EF6D570BD70B504468569007831
:1005F000C00707D170BDD4E9012120209047206AAF
:10060000401C20626D1EF6D570BD09684A0501D5F3
:1006100040B27047C905FCD500B2704709684A0569
:1006200001D5C0B27047C905FCD580B2704770B51E
:100630000C460546012A05D02878800600D5EA69CF
:10064000002302E0012305E05B1C934202D2E05C40
:100650000028F9D1A869E618C01AA861286A1844C8
:1006600028622846FFF7AAFF04E0D5E9012114F823
:10067000010B9047B442F8D32846FFF7B5FF70BD91
:100680002DE9F0410646002410687529314616A56B
:1006900010D0FFF7BAFF002802DA404213A507E0A6
:1006A00031688A0701D512A502E0490704D511A5D2
:1006B000012401E0FFF7B2FF00210A2206F124071E
:1006C00009E0B0FBF2FCB0FBF2F302FB1C0030309F
:1006D00078541846491C0028F3D123462A46304650
:1006E000BDE8F04100F0B9BA000000002D000000A4
:1006F0002B0000002000000011680268006A53050A
:1007000001D508700AE0D30501D5088006E013067C
:1007100003D5C217C1E9000200E00860012070475C
:1007200001694A1C02610878704700B58FB0CDE9B5
:1007300001310021059105497944CDE903101146A5
:10074000684600F031F90FB000BD0000E5FFFFFF83
:100750000A6802F8010B0A607047D1E900239A4247
:1007600002D2531C0B601070704700002DE9FF5F30
:1007700015468A460446DFF8AC80F8440027D8E9DD
:1007800000103E46CDE9001010E03AF816106A4617
:1007900002A800F075FE411C07D02178890603D518
:1007A000E269391891420DD80744761C20788006FA
:1007B00002D5E069B84205DDAE42E6DB3AF8160044
:1007C0000028E2D1A069C01BA0612046FFF7F6FE19
:1007D000D8E90010CDE90010002017E03AF8181011
:1007E0006A4602A800F04CFEB0F1FF3F81460BD0F4
:1007F00000250DF1080B05E0D4E901211BF80500E7
:1008000090476D1C4D45F7D308F10100B04280467A
:10081000E4DB206A384420622046FFF7E5FEBDE8AD
:10082000FF9F0000323800002DE9F0418046D21DC4
:1008300022F007020025D2E90002F52915A614D0FE
:10084000011E72F1000106DA0023D0EB030063EB16
:10085000020211A608E0D8F800108B0701D50FA6F8
:1008600002E0490701D50EA601251146002408F132
:10087000240704E000F0ACF930323A55641C50EA29
:100880000102F7D12B46324621464046BDE8F041F1
:1008900000F0E3B9000000002D0000002B00000074
:1008A0002000000030B4002100F1240408E002F030
:1008B0000705D208303542EA4372DB086554491C0B
:1008C00052EA0305F3D10468002310A2250707D5D7
:1008D000A40600D421B1C46901230DA2641EC46121
:1008E00030BC00F0BAB910B5044621461068FFF7D5
:1008F00095FE02462046BDE810400023D2E7D21DF7
:1009000022F00701D1E90023CCE70000000000003D
:1009100030000000F0B40D460188090502D5214CD5
:100920007C4402E01F4C7C440E34002100F124067C
:1009300008E002F00F071209E75D42EA03721B09A3
:100940007754491C52EA0307F3D1027800231207B7
:1009500004D5702D06D009B1022311342246F0BC13
:1009600000F07BB901231034F8E770B504460D465A
:1009700021461068FFF752FE024629462046BDE890
:1009800070400023C6E7D21D22F00703D3E90023FD
:10099000C0E70368126843F0200303600823C361C3
:1009A0000023B7E7943600002DE9F05F894604463E
:1009B0004FF0000ADFF874B1FB44C0F820A02046D5
:1009C000E1688847002874D0252806D0D4E90121A1
:1009D0009047206A401C2062F1E700265F462046CF
:1009E000E16888472028054607DB312D05D27819B4
:1009F00010F8200C08B10643F1E7B00701D526F046
:100A00000406C4F81CA00027C4F818A02A2D09D099
:100A1000284602F044FE38B304EB8708303DC8F89E
:100A2000185019E059F8041B204604EB8702916125
:100A3000E1688847012F054618D1E069002820DACF
:100A400026F020061DE0D8F8180000EB800005EB2A
:100A500040003038C8F818002046E168884705464D
:100A600002F01DFE0028EED1012F0AD02E2D08D154
:100A70002046E16888477F1C0546022F46F0200685
:100A8000C4DBA069002803DA404246F00106A061F9
:100A9000F00701D026F010066C2D0BD0682D09D080
:100AA0004C2D39D06A2D35D0742D35D07A2D33D0D8
:100AB00016E038E0E1682F4620468847B8420546F0
:100AC00009D16C2F26D04FF48060E16806432046A0
:100AD0008847054604E06C2F1AD04FF48070064317
:100AE0000DB3A5F14100192802D8203546F400665F
:100AF0004A462946204626604E46FFF79FFB80B1B6
:100B000001280BD0F61D26F0070000F1080956E772
:100B10004020E4E78020D8E70020D6E706F104096A
:100B20004DE7284652E7206ABDE8F09F24360000D2
:100B300010B5203AC0F00B80B1E81850203AA0E878
:100B40001850B1E81850A0E81850BFF4F5AF5FEAAC
:100B5000027C24BFB1E81850A0E8185044BF18C95F
:100B600018C0BDE810405FEA827C24BF51F8043B06
:100B700040F8043B08BF7047D20728BF31F8023B5A
:100B800048BF11F8012B28BF20F8023B48BF00F8EE
:100B9000012B704700487047F0050020034640686D
:100BA0008C46002818BF88423CBF03464068F8D3F3
:100BB00018681844884207D00CF1030020F00700A1
:100BC000001D411A521A0146081D0A60FFF7F5BBC5
:100BD00030B5B0F10A024FEA900E71F100034EEA0F
:100BE000817EB0EB0E0061EB91014FEA101E4EEAE0
:100BF000017E10EB0E0041EB11114FEA102E4EEA70
:100C0000016E10EB0E0041EB11214FEA104E4EEA3F
:100C1000014E10EB0E0041EB1141401841F1000173
:100C20004FEAD00040EA41704FEAD10110EB800555
:100C30004FEA810444EA907444EB01046D1944EBDB
:100C40000404521BA3414FF0000348BF0A3200D5F1
:100C500030BD401C41F1000130BD2DE9F0470D468B
:100C600099469246044600F124080168880604D596
:100C7000E06921F01001216000E00120A84201DDBF
:100C8000471B00E00027A1697A1902EB0900081A46
:100C9000A0612078C00602D42046FFF78FFC002612
:100CA00008E0D4E901211AF806009047206A401CA8
:100CB000761C20624E45F4DB2078C0060AD520461B
:100CC000FFF77CFC06E0D4E9012130209047206A40
:100CD000401C2062381EA7F10107F4DC07E0D4E9CC
:100CE000012118F805009047206A401C2062281E48
:100CF000A5F10105F3DC2046FFF776FC207800061D
:100D000002D50220BDE8F0870120FBE770472DE9FE
:100D1000FF4F0C461E464FF0FF378BB0D2E9000163
:100D2000DDF860800A908A46C1F30A5505B93D4650
:100D3000002108464FF00000BAF1000F00F4400017
:100D400005DA00EB80004FF4400101EA50004FEA61
:100D50009059B9F1010F00DDB9460A9850EA4A00EE
:100D60000ED044F61050A5F2FF3545432F14B8F1CC
:100D7000000F1ED07542291E1EDDC9F100021CE0C5
:100D8000B8F1010F4FF0000001D0302103E0F24331
:100D900005E02154401CB042FBDB3046002200211C
:100DA00021540B99C1F80880C1E900200FB0BDE8BB
:100DB000F08FBD1B6D1CDEE74A4600DA694206A8CB
:100DC00000F0F8FB06AB93E8070003AB83E80700ED
:100DD00050460A9900F0FDFC8DE80700A0F5005090
:100DE0001F3800900398002D0ADD42F21F014A4689
:100DF0000844002303A90390684600F066FF09E059
:100E0000A0F500504A461F38002303A90390684606
:100E100000F070FF8DE807000004000C03D04FF0D5
:100E2000FF30410800E01046B8F1000F03D0002267
:100E3000009215461EE0751E05D4FFF7C9FE30323C
:100E400062556D1EF9D5B3460122084302D0002237
:100E50007F1C04E02078302801D100227F1E002A68
:100E6000099784D01DE0112D07DAFFF7B1FE30326B
:100E700062556D1C50EA0102F5D1084302D000987A
:100E8000C8B10EE00021681E05E0235C625C63547B
:100E90002254401E491C8142F7DBAB46A81B401E72
:100EA0000990002004F80B000B98099AC0F80880FC
:100EB000C0E9002B7AE711264FF0000857E72DE92B
:100EC000F04F88460446D21D22F0070191B0D1E9C7
:100ED0000001CDE90A0102F0C7FB02460B98C00FE2
:100EE00001D02D2007E02068810701D52B2002E0EA
:100EF000202101EAC000032A099001D0072A05DB5E
:100F000003464146204600F015FB0BE120788006A1
:100F100001D5E06900E00620B8F1650F814606D0F2
:100F2000B8F1660F18D0B8F1670F70D131E000202A
:100F3000B9F1110F009001DB112301E009F1010368
:100F40000AAA01A90CA8FFF7E2FEDDE90C70002651
:100F500009F10105834647E001204B4600904FF020
:100F600000470AAA01A90CA8FFF7D1FEDDE90DB0E0
:100F70000C995D46002610B909F101000D18B9EB76
:100F8000050003D4C0F1FF3609F10105A5EB090006
:100F90002BE0B9F1010F01DA4FF001090020B9F19E
:100FA000110F0090484601DD112300E003460AAA14
:100FB00001A90CA8FFF7ABFEDDE90C704D46002639
:100FC0008346207800070AD4AB4500DA5D4601A8C5
:100FD000012D04DD411911F8011C302907D04F45BE
:100FE00002DA17F1040F04DA012082460FE06D1EC9
:100FF000EEE7002F02DCED1B3E4403E0781CA84224
:1010000000DD7D1CB81B00F1010A4FF0004720787D
:10101000000703D4AA4501DB4FF0FF3A0021B7F1E6
:10102000004F0DF143088DF8431024D002202B23EC
:10103000002F01DA7F422D230A21021EA0F10100B8
:1010400000DC5FB197FBF1FC97FBF1F201FB1C7C2C
:1010500017460CF1300C08F801CDEEE7A8F10100BD
:1010600003702188090501D5452100E06521A0F123
:10107000010800F8011C09980FA9A1EB0807FF1D42
:1010800000B10120411901EBEA70A1693844081A46
:10109000401EA0612078C00602D42046FFF78EFAD9
:1010A000099828B1D4E901219047206A401C2062A8
:1010B0002078C00622D52046FFF780FA1EE0002ED9
:1010C00004DBB34502DD01A8805D00E03020D4E9F7
:1010D00001219047206A401C2062761CAAF1010081
:1010E0005FEA000A0AD100F021FAC0680168405C9A
:1010F000D4E901219047206A401C2062281EA5F1F6
:101100000105DCDC07E0D4E9012118F8010B904768
:10111000206A401C2062381EA7F10107F3DC20463C
:10112000FFF762FA032011B041E600002DE9F04F0D
:1011300004460D46D21D22F0070089B0D0E9009781
:101140004846394602F090FA0246F80F01D02D23A6
:1011500007E02068810701D52B2302E0202101EA66
:10116000C0038DF820300BB1012000E00020032ADD
:10117000824601D0072A04DB2946204600F0DAF92E
:101180003FE12078800601D40D2500E0E569C7F332
:101190000A560D2D49DA00214FEA175B08464FF039
:1011A0000000002F00F4400007DA00EB80004FF44D
:1011B000400100EBD07001EA60008115012901DDDA
:1011C0004FF0FF3100224FEA850CBCF1180F06D317
:1011D0001346ACF118004FF08052C24003E04FF4C8
:1011E000801323FA0CF30CF10C0CBCF1200F04D388
:1011F000ACF1200C09FA0CF001E007FA0CF0002920
:101200004FF0004801DD18B90FE00ED140450CD376
:1012100019EB02095F4121B9404502D19F4329EAF8
:101220000209BBEB175F00D0761C2088000502D5B1
:101230007B48784402E07A487844193808AA302379
:1012400002F80A30037C0AF10101002E0AF1020AB9
:1012500053546A4602DC4FF0300101E04FF0310197
:101260004FF001088DF8001002D0A6F2FF3603E01F
:1012700059EA470100D06B4E002D02DC21780907A6
:1012800004D54FF002082E218DF80110C44600212C
:101290000BE0C7F303433F01C35C491C6D1E02F81A
:1012A0000830052908F1010801DA002DF1DC0021E0
:1012B0000CE000EB1973491C1B786D1E082902F81D
:1012C00008304FEA091908F1010801DA002DF0DCB5
:1012D00021688B0602D516E0A8F10108E04505DD7E
:1012E00002EB080313F8013C302BF5D0B8F1000FE6
:1012F00009DD02EB080313F8013C2E2B03D109078B
:1013000001D4A8F10108002D05DD3E2102F80810E6
:101310006D1E08F10108407C002E02F8080008F15B
:10132000010804DA2D20764202F8080002E02B20A2
:1013300002F808000A214FF47A70864208F1010889
:101340000BDB96FBF0F3303302F8083096FBF0F33A
:1013500008F1010800FB136601E0642E0CDB642039
:1013600096FBF0F3303302F8083096FBF0F308F107
:10137000010800FB136601E00A2E06DB96FBF1F084
:10138000303002F8080008F1010896FBF1F001FB8B
:101390001060303002F80800A16908F1010808EB7C
:1013A000050202EB0A00081AA0612078C00602D4E8
:1013B0002046FFF703F9216A08AE01EB0A0020621C
:1013C00004E0D4E9012116F8010B9047BAF1010AB3
:1013D000F7D22078C00602D52046FFF7EFF86E4618
:1013E00009E016F8010B3E280FD0D4E901219047FF
:1013F000206A401C2062B8F10108F2D22046FFF7B3
:10140000F3F809B00320BDE8F08F206A2844206279
:1014100003E0D4E90121302090476D1EEBD3F8E7BB
:10142000CE2D000002FCFFFF10B5436913B1AFF3EE
:10143000008001E0FFF7FBF8012010BD127800F1F9
:1014400024010A7000224A700122EDE711684FF072
:10145000FF32E9E710B5436913B1AFF3008001E053
:10146000FFF784F9012010BD128800F12401828465
:101470000022C2840122EDE711684FF0FF32E9E754
:1014800070B516460C46054600F048F8036893F818
:101490000101012806D0FF2C0FD8185D68B101208A
:1014A0002C7070BDD3F807013246214603F20713B2
:1014B00003442846BDE8704018474FF0FF3070BD28
:1014C00010B500F0F7F8BDE8104000F0EEB8704736
:1014D0007546FFF75FFBAE4605006946534620F0B0
:1014E0000700854618B020B5FEF726FFBDE820406E
:1014F0004FF000064FF000074FF000084FF0000BD0
:1015000021F00701AC46ACE8C009ACE8C009ACE882
:10151000C009ACE8C0098D467047000010B500F066
:1015200005F8001D10BD00BF2922000000487047CB
:10153000100600202DE9F0411F46044603260168ED
:10154000072A01F4006004DB08B116A505E016A522
:1015500003E008B115A500E015A521F010002060FA
:10156000A069C01EA0610FB1401EA0612046FFF718
:1015700025F84FB1D4E9012138469047206A401C34
:101580002062C01C206206E0206AFAE7D4E901214B
:1015900015F8010B9047761EF8D22046FFF724F885
:1015A000BDE8F0814E414E006E616E00494E46002E
:1015B000696E66002DE9F047814616468AB03548C7
:1015C00078440DC88DE80D0032487844801C03AC87
:1015D0000DC884E80D0041F69B300844372190FB8C
:1015E000F1F290FBF1F5A5F1800501FB12041B3C23
:1015F00002D56442012000E00020DFF898A0804678
:101600000027FA44AAF1BE0A0EE0E0070AD03246EB
:10161000684607EB470101230AEB810100F06AFBF2
:101620008DE8070064107F1C002CEED1194F7F4419
:10163000AE3F19E0E80715D007EB04100DF1180ACA
:1016400090E80E008AE80E00C068F04201D19819B7
:1016500008903246012306A903A800F04BFB03AB18
:1016600083E807006D10641C002DE3D14FF00103E7
:1016700032466946B8F1000F03A802D000F025FBFE
:1016800001E000F037FBC9E90001C9F808200AB001
:10169000BDE8F087D02A000010B50446AFF3008003
:1016A0002046BDE81040FEF732BE002801D000F011
:1016B00029B8704710B5012805D0002103A000F01B
:1016C00027F8012010BD09A1F8E70000534947524F
:1016D000544D454D3A204F7574206F662068656102
:1016E00070206D656D6F7279000000003A204865CA
:1016F0006170206D656D6F727920636F72727570A5
:101700007465640001491820ABBEFEE726000200A4
:1017100070B505460C460A2000E06D1C00F052F83A
:1017200035B128780028F8D102E0641C00F04AF8AE
:1017300014B120780028F8D1BDE870400A2000F0EC
:1017400041B800004FF0013C50F8042B51F8043B25
:101750009A4221D1A2EB0C03934313EACC1317D185
:1017600050F8042B51F8043B9A4215D1A2EB0C031C
:10177000934313EACC130BD150F8042B51F8043BDC
:101780009A4209D1A2EB0C03934313EACC13DBD0AA
:101790004FF00000704700BFD01A01BAB1FA81F1D2
:1017A00001F0180122FA01F0CB40C1F12001DBB2B7
:1017B000C0B2C01A2CFA01F3D11A914311EAC31135
:1017C000E6D1704708B569468DF800000320ABBE2E
:1017D00008BD5FEA400C08BF91F0000F4FEA8C2370
:1017E0004FEAC12243EA51514FEA1C5018BF00F59D
:1017F000F0404FEA300018BF41F000415FEA6C5CF6
:1018000000F02980BCF1FF3F08BF40F080407047E6
:10181000130C06BF12044FF0100C4FF0000C130E07
:1018200004BF12020CF1080C130F04BF12010CF1DB
:10183000040C930F04BF92000CF1020CD30F04BFF1
:1018400052000CF1010C11464FF00002A0F11F00F4
:10185000A0EB0C00704711F0004F08BF704731F04B
:1018600000413FF4D5AF0B0C06BF09044FF0100C3C
:101870004FF0000C0B0E04BF09020CF1080C0B0F0B
:1018800004BF09010CF1040C8B0F04BF89000CF19B
:10189000020CCB0F04BF49000CF1010CCCF120036A
:1018A000A0EB0C0022FA03F302FA0CF241EA030166
:1018B00000F10100704720F07F4C80EA030023F024
:1018C0007F47ACEB070303F57C5300F0004003F1C6
:1018D000FF032DE980494FEA154B09B44FEA144341
:1018E00025EA0B4E24EA03480FF2042606EB1327E1
:1018F00049083E785FEA320203FB0667C7F5000736
:1019000007FB06F64FEA54374FEAD64606F10206C1
:1019100007FB066CCCF1005C4FEA1C472CEA074C35
:1019200007FB06F40CFB06F504EB15464FEA96168A
:1019300034BF00204FF000404FEAD13706FB07FCD0
:101940004FEA1C4C0CFB0BF7D21B03FB0CF761EBB3
:1019500007010CFB0EF7B0EB074072EB17420CFBD4
:1019600008F734BFA2EB0742B2EB074261EB174125
:101970004FEA0C444FEA910706FB07FC4FEA1C4C68
:101980000CFB0BF7B0EBC74072EB573203FB0CF7C5
:1019900034BFA2EBC742B2EBC74261EB57310CFB3D
:1019A0000EF7B0EBC70072EB57720CFB08F734BFB1
:1019B000A2EBC702B2EBC70261EB5771039F4FEA7C
:1019C000816141EA921104EBCC044FEAD1374FEA2E
:1019D000826206FB07FC42EA90124FEA80604FEAFF
:1019E0001C4C0CFB0BF7D21B03FB0CF761EB070144
:1019F0000CFB0EF7B0EB074072EB17420CFB08F73D
:101A000034BFA2EB0742B2EB074261EB17414FEA4A
:101A10008C554FEA910704EB9C2406FB07FC4FEA28
:101A20001C4C0CFB0BF7B0EBC74072EB573203FBBF
:101A30000CF734BFA2EBC742B2EBC74261EB5731A0
:101A40000CFB0EF7B0EBC70072EB57720CFB08F7FC
:101A500034BFA2EBC702B2EBC70261EB577115EBC3
:101A60004C254FEA816141EA92114FEA82624FEAC6
:101A7000D13742EA901206FB07FC44F100044FEA1A
:101A800080604FEA1C4C0CFB0BF7D21B03FB0CF7DE
:101A900061EB07010CFB0EF7B0EB074072EB17424E
:101AA0000CFB08F734BFA2EB0742B2EB074261EB35
:101AB000174115EB1C154FEA813141EA92414FEA7B
:101AC000823242EA90424FEA80304FEA0C7644F18B
:101AD000000448EA03434EEA0B484FF0000EB2EB15
:101AE000080C71EB030724BF624639464EEB0E0E1D
:101AF0004FF0000B0018524149414BEB0B0BB2EB7E
:101B0000080C71EB03077BF1000B24BF62463946DA
:101B10004EEB0E0E4FF0000B0018524149414BEBBB
:101B20000B0BB2EB080C71EB03077BF1000B24BF2E
:101B3000624639464EEB0E0E51EA020718BF46F0D8
:101B4000010616EB0E7655F1000254F1000103D5A3
:101B5000BDE88901BDE80088BDE88901BDE800480D
:101B6000B619524141EB0101A3F101037047808096
:101B70007F7E7D7C7B7A79787776767574737271E7
:101B800071706F6E6E6D6C6C6B6A6A69686867669F
:101B900066656464636362616160605F5F5E5E5D31
:101BA0005D5C5C5B5B5A5A595958585757565655A5
:101BB00055555454535352525251515050504F4F07
:101BC0004F4E4E4D4D4D4C4C4C4B4B4B4A4A4A4957
:101BD000494948484847474747464646454545449A
:101BE0004444444343434342424242414141002B27
:101BF0009C4630D477002BD01CB54FEA370703B48E
:101C00004FF010004FF01001BAF1000F06D0BCF1F8
:101C1000000FDCBF40F0080040F008014FF000006A
:101C20000FBCBDE810400BF1010BBBF1010F08BF69
:101C30005FEA170722BF12F1010211F101014FF013
:101C4000004143F1000300F0004043EA0000704708
:101C5000F9D35708D0E746EA064613F1400F4FEA9A
:101C600016461FDD13F1200FDFBF16430A46002181
:101C700020335B42BED0C3F1200746EA064602FA93
:101C800007F74FEA164646EA0706C3F1200722FA8D
:101C900003F201FA07F721FA03F14FF0000342EAD9
:101CA0000702A7E746EA020646EA06464FEA164654
:101CB00046EA0106BCBF46EA0646360C4FF0000372
:101CC0004FF000024FF0000194E72DE9804C9A4656
:101CD000934670B491E8380007C831EA400C48BF19
:101CE00034EA430C03D5FFF7E6FDFFF780FFF0BCB5
:101CF000BDE8008C2DE9804C9A46934670B491E87B
:101D0000380007C810F0804F08BF13F0804F03D190
:101D100000F005F8FFF76BFFF0BCBDE8008C20F089
:101D20007F4780EA030023F07F4C07EB0C03A3F509
:101D30007C5300F00040A3F1FE0392F0000F00F08E
:101D4000B38095F0000F00F077802DE901494FEA4C
:101D500011404FEA144621EA004800FB06FC24EA41
:101D6000064708FB06F607FB08F800FB07F718EB29
:101D700006484CEB164C4FEA124B18EB07484FEA5B
:101D800015464CEB174022EA0B4E0BFB06FC25EAEE
:101D900006470EFB06F607FB0EFE0BFB07F71EEBD6
:101DA000064E4CEB164C4FF000061EEB074E4CEB6C
:101DB000174B18EB0B0840F1000018EB0E0B58EB1B
:101DC000000840F100008F1A4FF000013CBFC943EA
:101DD000661B14BFB5EB040C00213CBFC943F61BC6
:101DE0004FEA17444EEA8E0E27EA04454FEA1C4795
:101DF00004FB07622CEA074C05FB07F70CFB05F612
:101E000004FB0CFC16EB074642EB174216EB0C46A4
:101E100042EB1C421BEB060658EB0202414146EA2C
:101E20009E0601D5BDE80189B619524141EB010179
:101E3000A3F10103BDE801894FEA14454FEA1147B8
:101E400024EA054621EA074C05FB07F406FB07F7E1
:101E50000CFB06F105FB0CFC11EB074144EB1744AE
:101E60004FEA124711EB0C4144EB1C4422EA074CA9
:101E700005FB07F206FB07F70CFB06F605FB0CFC5F
:101E800016EB074642EB174216EB0C4642EB1C459D
:101E90006A1854F1000148BF7047B619524141EB2E
:101EA0000101A3F10103704795F0000F37D04FEA0D
:101EB00011424FEA144721EA024624EA074C02FB8A
:101EC00007F106FB07F70CFB06F402FB0CFC14EB16
:101ED000074441EB17414FEA154714EB0C4441EB23
:101EE0001C4125EA074C02FB07F506FB07F70CFB34
:101EF00006F602FB0CFC16EB074645EB174516EB06
:101F00000C4645EB1C42121951F1000148BF7047C5
:101F1000B619524141EB0101A3F1010370474FEAA9
:101F200014454FEA114724EA054621EA074C05FB10
:101F300007F106FB07F70CFB06F24FF0000605FB66
:101F40000CFC12EB074241EB174112EB0C4251EB38
:101F50001C4148BF7047921841EB0101A3F10103F6
:101F600070470FB4F8B5064608A80090002108464F
:101F7000009B079AFEF76EFA044600200090002CA2
:101F800017DB601CFEF7EAF905468DB108A8009042
:101F9000611C2846009B079AFEF75CFA002000901F
:101FA00022462946304601F0EFFA2846FEF705FAA8
:101FB00000BFF8BC5DF814FB2DE9FF4F89B0044663
:101FC000894616461CB908200DB0BDE8F08F0C9864
:101FD00012286FD2DFE800F0093B7094B6FBF6F5EB
:101FE000F4F3F2F1F0EFEEEDECEB206930446168D0
:101FF000884229D8CDF81090002517E0A068284421
:102000006168B0FBF1F201FB1201226804980078CC
:1020100005F00703184100F001005054681C00F05F
:10202000070010B90498401C04906D1CB542E5D31C
:10203000A06830446168B0FBF1F201FB1200A060BF
:1020400020693044206101E00520BDE745E2082E0B
:1020500001D3F00800E0012006462069B04227D3F2
:10206000002517E0E06828446168B0FBF1F201FB4D
:102070001200216808440490002708E004980078C2
:10208000384100F0010009EBC501C8557F1C082F3D
:10209000F4D36D1CB542E5D3E06830446168B0FB11
:1020A000F1F201FB1200E0602069801B206102E078
:1020B000062089E710E210E2206930446168884216
:1020C0001BD800250BE0A06828446168B0FBF1F242
:1020D00001FB120019F8052021680A546D1CB54255
:1020E000F1D3A06830446168B0FBF1F201FB12004B
:1020F000A06020693044206101E0052064E7ECE144
:102100002069B0421BD300250BE0E06828446168D9
:10211000B0FBF1F201FB12002168085C09F8050030
:102120006D1CB542F1D3E06830446168B0FBF1F258
:1021300001FB1200E0602069801B206101E00620A5
:1021400042E7CAE14FEA4608206940446168884294
:102150003AD800251DE009EB45000390A06800EB8C
:1021600045006168B0FBF1F201FB1201226803989F
:102170000088000A5054A06800EB4500401C6168CC
:10218000B0FBF1F201FB1201226803980078505471
:102190006D1CB542DFD3A06840446168B0FBF1F22A
:1021A00001FB1200A0602069404420610EE08FE135
:1021B0006DE168E163E15EE14EE14AE145E1F2E0B3
:1021C000B5E06DE038E002E00520FDE685E14FEA8C
:1021D000460820694044616888422AD8002519E0F1
:1021E000E06800EB4500401C6168B0FBF1F201FBC8
:1021F00012002168085CE16801EB45016268B1FBEF
:10220000F2F302FB13112268515C40EA012029F825
:1022100015006D1CB542E3D3E06840446168B0FB33
:10222000F1F201FB1200E0602069A0EB08002061E0
:1022300001E00620C8E650E14FEA860820694044E4
:102240006168884229D8002519E009EB85000290D1
:10225000002711E0A06800EB850038446168B0FBFE
:10226000F1F201FB12012268029800681823A3EB27
:10227000C703D84050547F1C042FEBD36D1CB542CC
:10228000E3D3A06840446168B0FBF1F201FB1200A7
:10229000A06020694044206101E0052094E61CE133
:1022A0004FEA8608206940453FD3B000FEF756F854
:1022B0008246BAF1000F01D1082085E600251CE016
:1022C00000204AF82500002714E0E06800EB8500B4
:1022D00038446168B0FBF1F201FB12002168085C30
:1022E0001821A1EBC70188405AF8251008434AF885
:1022F00025007F1C042FE8D36D1CB542E0D3B2004B
:1023000051464846FEF7C0F85046FEF756F8E068DA
:1023100040446168B0FBF1F201FB1200E06020690B
:10232000A0EB0800206100204EE606204CE64FEAB4
:10233000C608206940446168884231D8002521E000
:1023400009EBC5000190002719E0A06800EBC5006B
:1023500038446168B0FBF1F201FB120AD4F800B016
:102360000198D0E900103822A2EBC702CDE905019F
:1023700008460599FEF75BF80BF80A007F1C082F4A
:10238000E3D36D1CB542DBD3A06840446168B0FB69
:10239000F1F201FB1200A06020694044206101E0DD
:1023A000052011E699E04FEAC6082069404549D367
:1023B000F000FDF7D3FF0190019808B9082003E66B
:1023C000002528E00022019901EBC5010A604A605E
:1023D00000271DE0E06800EBC50038446168B0FBF1
:1023E000F1F201FB12002168085C00213822A2EB07
:1023F000C702CDE90710FEF707F8019A02EBC50303
:102400000CCB10431943019A02EBC50203C27F1C97
:10241000082FDFD36D1CB542D4D3F2004846019992
:10242000FEF732F80198FDF7C8FFE06840446168A4
:10243000B0FBF1F201FB1200E0602069A0EB0800A4
:10244000206101E00620BFE547E016980068606063
:1024500043E01698206040E000202061E060A0602A
:10246000002704E0169800782168C8557F1C606832
:10247000B842F7D831E06168169801602DE0E16854
:102480001698016029E0A1681698016025E0A0680F
:10249000E168884207D9A068E168401A6168091AB2
:1024A0001698016013E0A068E168884207D2E068EE
:1024B000A168401A6168091A1698016007E020694E
:1024C00018B961681698016001E005207CE504E018
:1024D00021691698016000E000BF00BF002073E58D
:1024E00000BFFEE710B500240AE004EB840101EB15
:1024F000C4010A4A02EB810000F08EFD601CC4B2E8
:10250000012CF2DB002206A11046FFF72AFD002273
:1025100004A11046FFF725FD10BD0000300000208B
:102520000D0A00002D2D3E20434F4D315F496E694D
:1025300074210D0A0000000008B5002001231A468E
:1025400001460090442000F0BBF8002001231A4609
:1025500001460090432000F0B3F8002001231A4602
:1025600001460090422000F0ABF808BD10B5154CB4
:1025700000202080442000F0CFF8218848402080AF
:10258000432000F0C9F8218881EA400020804220E1
:1025900000F0C2F8218881EA8000208000200EE04F
:1025A00034F81010074A921C32F81020514029B11B
:1025B00034F810200349891C21F81020401C002801
:1025C000EED010BD6400002008B5022000231A469A
:1025D00001210090592000F073F8022000231A46D0
:1025E000012100905A2000F06BF808BD10B50024BE
:1025F0001DE0104830F814000E49891C31F8141001
:10260000484098B10B4830F81410801C20F8141082
:10261000801E007800F00101592000F093F8054871
:10262000007800F002015A2000F08CF8641C002CA5
:10263000DFD010BD6C000020704700B5034603E0FA
:102640004FF47A7000F006F8181EA3F10103F7D1D9
:1026500000BD000010490968104AB1FBF2F1414386
:102660004FF0E0225161002191611146096941F06A
:102670000101116100BF4FF0E021096901F48031CF
:102680000029F8D04FF0E021096921F001014FF055
:10269000E0221161704700000000002000127A0063
:1026A00010B5014600200A11082A03DC024B1C1554
:1026B00004FB023010BD00000000024000BFFEE736
:1026C0002DE9F04706460F4690469946DDF820A0D2
:1026D0000121304600F06AFA06F00F053046FFF798
:1026E000DFFF04462068690007FA01F10843206013
:1026F0006068690008FA01F108436060A068690039
:102700000AFA01F10843A060E068690009FA01F1E2
:102710000843E060BDE8F08730B504462046FFF787
:10272000BFFF0546286904F00F02012191400840CF
:1027300004F00F0201219140884201D1012030BDF7
:102740000020FCE7F0B505460E4605F00F072846C9
:10275000FFF7A6FF04462EB1208B0121B9400843A4
:10276000208304E0608B0121B94008436083F0BD01
:1027700000BFFEE77047000070B5002100230F2264
:10278000C4781CB3174C246804F4E064C4F5E06416
:10279000C4F30721C1F10404E3B20A4144789C4028
:1027A000E1B28478144021430C07210E0E4C0578C9
:1027B0006155047804F01F050124AC4005786D11C3
:1027C000AD0005F1E025C5F8004109E0047804F00A
:1027D0001F050124AC40054D0678761145F82640CA
:1027E00070BD00000CED00E000E400E080E100E0DE
:1027F00070B50646002419E004F1B001C8B200210A
:1028000000F03DF90021084600F039F900211020C0
:1028100000F035F9002505E00121304600F02FF9E0
:10282000681CC5B2802DF7DB601CC4B2082CE3DB4A
:1028300070BD10B50021AE2000F021F9002108463E
:1028400000F01DF90021102000F019F900214020AE
:1028500000F015F90021B02000F011F900218120CD
:1028600000F00DF90021FF2000F009F90021A1205E
:1028700000F005F90021A62000F001F90021A820B0
:1028800000F0FDF800213F2000F0F9F80021C820F9
:1028900000F0F5F80021D32000F0F1F800210846FF
:1028A00000F0EDF80021D52000F0E9F800218020AB
:1028B00000F0E5F80021D82000F0E1F80021052023
:1028C00000F0DDF80021D92000F0D9F80021F12036
:1028D00000F0D5F80021DA2000F0D1F80021122014
:1028E00000F0CDF80021DB2000F0C9F800213020F5
:1028F00000F0C5F800218D2000F0C1F8002114205F
:1029000000F0BDF80021AF2000F0B9F810BD70B59F
:1029100004460D4605F1B001C8B2002100F0AFF841
:10292000102141EA1410002100F0A9F804F00F0072
:10293000002100F0A4F870BD2DE9F04180460E465C
:102940001546002731464046FFF7E1FF00240AE024
:10295000124A02EB8511085D012100F090F8781C05
:10296000C7B2601CC4B2102CF2DB701CC1B240466E
:10297000FFF7CDFF00240CE06900491C074A02EB79
:102980004111085D012100F07AF8781CC7B2601C83
:10299000C4B2102CF0DBBDE8F08100007000002014
:1029A0002DE9F04707460E4690469946002500243B
:1029B000A8F12000C5B27F2F02DD0027B01CC6B2EF
:1029C000B9F1100F24D131463846FFF7A0FF00249B
:1029D00008E004EB0511194A505C012100F04FF8A2
:1029E000601CC4B2082CF4DB701CC1B23846FFF77F
:1029F0008EFF002409E004EB051108310F4A505CFA
:102A0000012100F03CF8601CC4B2082CF3DB12E09A
:102A100031463846FFF77BFF00240AE005EB45010D
:102A2000074A02EB4101085D012100F028F8601C13
:102A3000C4B2062CF2DBBDE8F0870000C039000804
:102A4000983700082DE9F04104460F461546984690
:102A500000260FE0AA5D434639462046FFF7A0FF57
:102A600004F10800C4B2782C02DD0024B81CC7B2FF
:102A7000701CC6B2A85D0028ECD1BDE8F08170B52D
:102A800004460D4635B1234640223C21002000F08B
:102A900045FA05E0234600223C21104600F03EFAAC
:102AA00070BD704729B1064A12680243044B1A6090
:102AB00004E0034A12688243014B1A607047000029
:102AC00044380240F0B500210022002402250026EF
:102AD0000223324F3F6807F00C0121B1042905D0D1
:102AE000082937D105E02E4F076036E02D4F0760EB
:102AF00033E02A4F3F1F3F68C7F38056274F3F1FE1
:102B00003F6807F03F036EB1264FB7FBF3F7DFF8DE
:102B10008CC0ACF1040CDCF800C0CCF3881C07FBC3
:102B20000CF40CE01E4FB7FBF3F7DFF870C0ACF10C
:102B3000040CDCF800C0CCF3881C07FB0CF4174F26
:102B40003F1F3F68C7F301477F1C7D00B4FBF5F7CB
:102B5000076002E0124F076000BF00BF0F4F3F68E1
:102B600007F0F0010909104F7A5C0768D740476009
:102B70000A4F3F6807F4E051890A0B4F7A5C4768B7
:102B8000D7408760054F3F6807F46041490B064F07
:102B90007A5C4768D740C760F0BD00000838024043
:102BA0000024F40000127A001400002010B5021175
:102BB00039B1084B1B68012494402343054C236022
:102BC00006E0044B1B6801249440A343014C23609E
:102BD00010BD00003038024070B504460D4604EBCD
:102BE000840101EBC401044A02EB8101887A294681
:102BF000FFF7A8FD70BD0000300000207047000006
:102C00000CB50020019000903448006840F48030FA
:102C10003249086000BF3148006800F4003000907D
:102C20000198401C0190009818B90198B0F5A04F88
:102C3000F1D12A48006800F4003010B10120009062
:102C400001E0002000900098012846D12348403040
:102C5000006840F0805021494031086020480068F9
:102C600040F440401E4908601C48083000681B4979
:102C7000083108600846006840F4004008600846D3
:102C8000006840F4A05008601648091F0860081F3B
:102C9000006840F08070091F086000BF0F4800689E
:102CA00000F000700028F9D040F205700E4908606D
:102CB0000A480830006820F003000849083108601D
:102CC0000846006840F00200086000BF0348083072
:102CD000006800F00C000828F8D10CBD0038024054
:102CE0000070004008544007003C02402DE9F041CC
:102CF00004460D4604EB4400094901EB80063046CA
:102D000000F0C2F82946304600F08CF8304600F05A
:102D100047F80746304600F0E1F83846BDE8F08154
:102D20002400002038B504460320009020780023BA
:102D30001A460121FFF7C4FC0320009060780023AD
:102D40001A460121FFF7BCFC20780121FFF7FAFCAD
:102D500060780121FFF7F6FC38BD000010B50024B3
:102D600008E004EB4401074A02EB8100FFF7DAFFB9
:102D7000601CC4B2012CF4DB002203A11046FFF753
:102D8000F0F810BD240000202D2D3E2049324331A3
:102D90005F4255535F496E6974210D0A00000000BF
:102DA00070B5044660780121FFF7CCFC2078012142
:102DB000FFF7C8FC0D49A068B1FBF0F63046FFF7FD
:102DC00049FC6078FFF7A8FC054620780021FFF752
:102DD000B9FC0649A068B1FBF0F63046FFF73AFCB3
:102DE0000DB1042070BD0320FCE7000020A1070006
:102DF00070B5054610240CE06006010E2846FFF76A
:102E000075FF032804D1620003A10020FFF7A9F891
:102E1000641C7F2CF0D370BD416464723A2025237A
:102E2000580D0A002DE9F04104460D46002625E024
:102E300005F080016078FFF785FC1249A068B1FBBE
:102E4000F0F73846FFF706FC20780121FFF77AFCFF
:102E50000C49A068B1FBF0F73846FFF7FBFB207880
:102E60000021FFF76FFC0749A068B1FBF0F7384677
:102E7000FFF7F0FB6806050E701CC6B2082ED7DB04
:102E8000BDE8F08120A1070070B5044660780121FB
:102E9000FFF758FC20780121FFF754FC0E49A06889
:102EA000B1FBF0F52846FFF7D5FB60780021FFF76E
:102EB00049FC0949A068B1FBF0F52846FFF7CAFBB9
:102EC00020780021FFF73EFC0349A068B1FBF0F534
:102ED0002846FFF7BFFB70BD20A1070070B5044670
:102EE00060780021FFF72EFC20780121FFF72AFCF3
:102EF0000949A068B1FBF0F52846FFF7ABFB607805
:102F00000121FFF71FFC0449A068B1FBF0F528463A
:102F1000FFF7A0FB70BD000020A107002DE9F041E4
:102F200004460D4616461F4604EB44001E4901EBBD
:102F30008008012000F0B0FB4046FFF7A5FFFE200F
:102F400000EA45014046FFF76DFF4046FFF728FFC6
:102F5000042805D14046FFF7C1FF0420BDE8F081F9
:102F600031464046FFF75EFF4046FFF719FF042851
:102F700004D14046FFF7B2FF0420EFE73946404650
:102F8000FFF750FF4046FFF70BFF042804D14046EF
:102F9000FFF7A4FF0420E1E74046FFF79FFF002072
:102FA00000F07AFB0020D9E72400002070470000E1
:102FB00010B51548006840F47000134908601348C4
:102FC000006840F001001149086000200F490831F5
:102FD00008600E4800680E4908400C4908600D481A
:102FE000091D0860081F006820F48020091F086080
:102FF000002006490C310860FFF702FE4FF0006028
:1030000001498039086010BD88ED00E000380240B9
:10301000FFFFF6FE103000242DE9F04387B0044690
:10302000D4F8009002200090207A0123002202218F
:10303000FFF746FB02200090607A01230022022164
:10304000FFF73EFBA07AFF2807D002200090A07A6D
:10305000012300221946FFF733FB207AFFF720FBFC
:103060000646607AFFF71CFB0546207A00F00F0742
:10307000607A00F00F08444881452AD101211020D0
:10308000FFF710FD25208DF80800072F06DA306ABB
:10309000BA00072191400843306207E0706AA7F147
:1030A00008018A000721914008437062B8F1070FB8
:1030B00007DA286A4FEA880207219140084328620C
:1030C00007E0686AA8F108018A00072191400843D7
:1030D000686200208DF80A0001208DF80B006068FE
:1030E00003900C20ADF81600E07A00F00F0018B93C
:1030F0000020ADF8100007E0E07A00F00F00012892
:1031000002D10003ADF81000E07AC0F3011018B945
:103110000020ADF8120007E0E07AC0F301100128AA
:1031200002D14003ADF81200E07A800918B90020FE
:10313000ADF8140011E0E07A0121B1EB901F04D149
:103140004FF4C060ADF8140007E0E07A0221B1EB63
:10315000901F02D14802ADF814000020ADF818000D
:1031600003A9484600F08AF80121484600F02BF8F0
:10317000012240F22551484600F05BF802A8FFF713
:10318000FBFA07B0BDE8F0830010014010B5002045
:1031900000F0E4F810BD01F40072B2F5007F00D138
:1031A00000BFCA430280704710B50022002340F6DA
:1031B0006A14A14200D100BF0A1201249440A3B2B4
:1031C000DC43048010BD21B1828942F40052828127
:1031D00004E082894DF6FF731A408281704770B512
:1031E0000246002400230025002040F66A16B14262
:1031F00000D100BFC1F3421501F01F03012606FAFA
:1032000003F3012D02D19689334006E0022D02D14D
:10321000168A334001E0968A33400C12012606FAE2
:1032200004F41688344013B10CB1012000E00020F2
:1032300070BDF0B50346002400260025002040F6AE
:103240006A17B94200D100BF1846C1F3421401F019
:103250001F06012707FA06F5012C01D10C3004E006
:10326000022C01D1103000E014301AB107682F434E
:10327000076002E00768AF430760F0BD2DE9FF4734
:1032800005460E460024A14600BFA046B08900B105
:1032900000BF2C8A24F44054F08804432C82AC896B
:1032A00041F20C608443B088318908437189084336
:1032B0000443AC81AC8A24F44074B0890443AC82EA
:1032C0006846FFF7FFFB2048854202D01F48854231
:1032D00002D1DDF80C9001E0DDF80890A88900F437
:1032E000004040B109EBC90000EB0910316849000A
:1032F000B0FBF1F707E009EBC90000EB09103168FA
:103300008900B0FBF1F76420B7FBF0F0040120095D
:10331000642101FB1078A88900F4004040B13220FC
:1033200000EBC800B0FBF1F000F00700044308E038
:10333000322000EB08106421B0FBF1F000F00F0028
:1033400004432C81BDE8FF870010014000140140B8
:1033500001468888C0F30800704700007FB5044626
:1033600004EB840000EBC400744951F8205040F293
:1033700025512846FFF733FF002826D02846FFF7BF
:10338000E7FFC0B20190002004EB840101EBC4010F
:103390006A4A02EB8101009001F120000223012220
:1033A00001A9FEF709FE052808D165484FF4EC7322
:1033B00064A26BA100900020FEF7D3FD012240F231
:1033C00024412846FFF735FF00BF40F2244128463C
:1033D000FFF705FFC8B340F224412846FFF7DBFEA4
:1033E00002A804EB840101EBC401544A02EB810101
:1033F000009001F12000112300221146FEF7DCFDB0
:1034000018BB029808B3002240F224412846FFF777
:1034100010FF04EB840000EBC400484A02EB80007C
:10342000016A2046029A00F0AFF8002004EB840104
:1034300001EBC401414A02EB8101009001F120003F
:103440000C2300221146FEF7B7FD40F227712846F3
:10345000FFF7C5FE88B304EB840000EBC4003749D6
:1034600001EB8000807AFF2803D001212046FFF77E
:10347000B3FB40F227712846FFF796FE03A804EB42
:10348000840101EBC4012D4A02EB8101009001F19E
:103490000C00112300221146FEF78EFD68B9039837
:1034A00060B9002240F227712846FFF7C2FE0122D0
:1034B00040F226612846FFF7BCFE02E0204600F0FD
:1034C00091F840F226612846FFF789FE88B340F262
:1034D00026612846FFF768FE03A804EB840101EB90
:1034E000C401164A02EB8101009001F10C00112386
:1034F00000221146FEF760FDD8B90398D0B900222A
:1035000040F227712846FFF794FE012240F226611F
:103510002846FFF78EFE04EB840000EBC400074949
:1035200001EB8000807AFF2807D000212046FFF7BA
:1035300053FB02E0204600F055F87FBD300000202C
:103540008E3700082E2E5C2E2E5C7372635C6472C4
:1035500069766572735C756172742E630000000099
:103560004572726F7220696E2066696C65202573E2
:103570002C206C696E652025642C2066756E637442
:10358000696F6E2025730A00F8B504460D4616468D
:10359000012080F3108800BF002004EB840101EBC0
:1035A000C4010F4A02EB8101009001F10C000223DB
:1035B00032462946FEF700FD0746002080F31088BA
:1035C00000BF04EB840101EBC401054A52F821005D
:1035D000012240F22771FFF72CFE3846F8BD0000AB
:1035E000300000201CB50446002004EB840101EBF0
:1035F000C401094A02EB8101009001F10C00032390
:10360000012201A9FEF7D8FC20B99DF8041020463C
:1036100000F004F81CBD00003000002000BF00EBEB
:10362000800202EBC0020E4B53F82220128802F0F7
:103630008002002AF3D000EB800202EBC00253F8B4
:103640002220918000BF00EB800202EBC002044BFD
:1036500053F82220128802F04002002AF3D070476B
:103660003000002000BFFEE703B40198410000983D
:1036700050EAC12018BF04204A0D18BF40F00100D5
:1036800040F2FF72B2EB515F08BF40F00200012828
:1036900008BF052002B0704780F3108870473038AB
:1036A0000A2801D20120704700207047FEF71AFF58
:1036B000FEF742FFFEF788FFFFF750FB0020FFF701
:1036C00097FB0FA212A10020FEF74BFCFFF7B1F809
:1036D0000020FFF78DF810230FA202210A20FFF728
:1036E000B1F9002211461046FFF726F907E0FEF770
:1036F0003DFFFEF77BFF4FF4FA70FEF79EFFF6E703
:1037000053544D3332463430372056312E3000007A
:1037100025730D0A000000004848442048656C6C81
:103720006F21000010B500290AD00878002807D0C2
:1037300005487844FEF706F8002801D0002010BDA7
:103740000248784410BD00009A0900009209000068
:1037500010B500290AD00878002807D00548784419
:10376000FDF7F0FF002801D0002010BD024878448A
:1037700010BD00008A090000820900004FF040706F
:10378000E1EE100A7047FDF79ABBFDF7CFBC55611B
:1037900072745F50726F6300000000000000000050
:1037A000002F000000000700070000147F147F14A2
:1037B00000242A7F2A120062640813230036495528
:1037C000225000000503000000001C224100000000
:1037D00041221C000014083E08140008083E080896
:1037E000000000A0600000080808080800006060F1
:1037F0000000002010080402003E5149453E000030
:10380000427F4000004261514946002141454B3111
:10381000001814127F10002745454539003C4A49DD
:10382000493000017109050300364949493600064F
:103830004949291E000036360000000056360000B7
:103840000008142241000014141414140000412232
:10385000140800020151090600324959513E007C0A
:103860001211127C007F49494936003E41414122F4
:10387000007F4141221C007F49494941007F0909DD
:103880000901003E4149497A007F0808087F00008D
:10389000417F4100002040413F01007F0814224148
:1038A000007F40404040007F020C027F007F040800
:1038B000107F003E4141413E007F09090906003E5C
:1038C0004151215E007F0919294600464949493185
:1038D0000001017F0101003F4040403F001F2040A8
:1038E000201F003F4038403F006314081463000766
:1038F0000870080700615149454300007F414100BD
:1039000000552A552A55000041417F00000402015C
:10391000020400404040404000000102040000203A
:1039200054545478007F4844443800384444442078
:1039300000384444487F00385454541800087E0925
:1039400001020018A4A4A47C007F080404780000ED
:10395000447D4000004080847D00007F10284400AA
:103960000000417F4000007C04180478007C0804BB
:10397000047800384444443800FC242424180018F7
:10398000242418FC007C08040408004854545420E3
:1039900000043F444020003C4040207C001C20406C
:1039A000201C003C4030403C004428102844001CAF
:1039B000A0A0A07C004464544C44141414141414A7
:1039C00000000000000000000000000000000000F7
:1039D000000000F80000000000000033300000008C
:1039E00000100C06100C0600000000000000000093
:1039F00040C07840C0784000043F04043F04040005
:103A0000007088FC08300000001820FF211E000014
:103A1000F008F000E018000000211C031E211E0029
:103A200000F00888700000001E21232419272110AF
:103A300010160E0000000000000000000000000052
:103A4000000000E0180402000000000718204000F9
:103A500000020418E00000000040201807000000E9
:103A6000404080F0804040000202010F010202004D
:103A7000000000F0000000000101011F0101010031
:103A8000000000000000000080B070000000000096
:103A9000000000000000000000010101010101011F
:103AA00000000000000000000030300000000000B6
:103AB000000000008060180400601806010000008B
:103AC00000E010080810E000000F102020100F0088
:103AD000001010F8000000000020203F202000000F
:103AE0000070080808887000003028242221300067
:103AF00000300888884830000018202020110E006F
:103B00000000C02010F8000000070424243F240017
:103B100000F80888880808000019212020110E00EC
:103B200000E0108888180000000F112020110E00FE
:103B300000380808C83808000000003F00000000F6
:103B40000070880808887000001C222121221C00B7
:103B500000E010080810E0000000312222110F00E0
:103B6000000000C0C0000000000000303000000075
:103B700000000080000000000000806000000000E5
:103B800000008040201008000001020408102000FE
:103B90004040404040404000040404040404040049
:103BA00000081020408000000020100804020100DE
:103BB000007048080808F0000000003036010000DE
:103BC000C030C828E810E0000718272423140B0091
:103BD0000000C038E0000000203C2302022738200B
:103BE00008F8888888700000203F202020110E00EF
:103BF000C0300808080838000718202020100800E6
:103C000008F808080810E000203F202020100F00CE
:103C100008F88888E8081000203F2020232018009A
:103C200008F88888E8081000203F20000300000002
:103C3000C03008080838000007182020221E0200A3
:103C400008F808000008F808203F210101213F2062
:103C5000000808F8080800000020203F202000008D
:103C600000000808F8080800C08080807F0000007D
:103C700008F888C028180800203F200126382000B6
:103C800008F8080000000000203F2020202030001D
:103C900008F8F800F8F80800203F003F003F200037
:103CA00008F830C00008F808203F200007183F003F
:103CB000E01008080810E0000F10202020100F006E
:103CC00008F808080808F000203F21010101000061
:103CD000E01008080810E0000F18242438504F00A6
:103CE00008F8888888887000203F2000030C302066
:103CF00000708808080838000038202121221C00A4
:103D0000180808F8080818000000203F20000000EC
:103D100008F808000008F808001F202020201F00D5
:103D20000878880000C83808000007380E01000035
:103D3000F80800F80008F800033C0700073C0300FF
:103D4000081868808068180820302C03032C302065
:103D50000838C800C83808000000203F20000000D4
:103D600010080808C838080020382621202018002C
:103D7000000000FE020202000000007F4040400000
:103D8000000C30C000000000000000010638C00038
:103D900000020202FE000000004040407F000000E0
:103DA0000000040202020400000000000000000005
:103DB0000000000000000000808080808080808003
:103DC00000020204000000000000000000000000EB
:103DD00000008080808000000019242222223F20E1
:103DE00008F8008080000000003F112020110E0024
:103DF0000000008080800000000E112020201100B3
:103E0000000000808088F800000E112020103F2064
:103E10000000808080800000001F222222221300E8
:103E2000008080F0888888180020203F2020000033
:103E30000000808080808000006B949494936000E8
:103E400008F8008080800000203F210000203F20F3
:103E500000809898000000000020203F20200000F3
:103E6000000000809898000000C08080807F0000E3
:103E700008F8000080808000203F24022D302000C0
:103E8000000808F8000000000020203F202000006B
:103E90008080808080808000203F20003F20003F85
:103EA0008080008080800000203F210000203F2093
:103EB0000000808080800000001F202020201F0044
:103EC000808000808000000080FFA12020110E0073
:103ED0000000008080808000000E112020A0FF8064
:103EE000808080008080800020203F212000010011
:103EF0000000808080808000003324242424190066
:103F0000008080E0808000000000001F2020000072
:103F10008080000000808000001F202020103F20B3
:103F2000808080000080808000010E300806010043
:103F300080800080008080800F300C030C300F00E8
:103F400000808000808080000020312E0E31200013
:103F5000808080000080808080818E701806010043
:103F600000808080808080000021302C2221300061
:103F700000000000807C020200000000003F404082
:103F800000000000FF00000000000000FF00000033
:103F90000002027C800000000040403F0000000062
:103FA00000060101020204040000000000000000FD
:103FB0000000000000000000303132333435363765
:103FC000383941424344454640305800303132335D
:103FD000343536373839616263646566403078005D
:103FE00004000008000000000000000200010000C2
:103FF00010303132333435363738396162636465B5
:1040000066787000303132333435363738394142D2
:10401000434445465850000002400000000000A004
:104020000000000005400000000000C80000000083
:104030000C4000000000409C0000000019400000FF
:104040000020BCBE0000000034400000BFC91B8E31
:1040500000000004B5400000504BCFD06607E2CF0F
:10406000010000006C4100003E8251AADFEEA7343F
:1040700001000000D9420000DCB5A0E23A301F97F1
:10408000FFFFFFFFB4450000FD25A0C8E9A3C14F15
:10409000FFFFFFFFFF3F0000000000800000000066
:1040A000FF3F00000000008000000000F841000811
:1040B00000000020F0010000C4010008D042000808
:1040C000F0010020600A0000200200081C0000002F
:1040D00043000000F8FFFFFF0C0000000E0000008E
:1040E0000F0000002E00000010010000430000003F
:1040F000F8FFFFFF00404040404040404040414109
:1041000041414140404040404040404040404040AC
:104110004040404040050202020202020202020246
:104120000202020202202020202020202020200243
:1041300002020202020290909090909010101010D3
:10414000101010101010101010101010101010106F
:104150000202020202028888888888880808080803
:1041600008080808080808080808080808080808CF
:1041700002020202400000000000000000000000F7
:10418000000000000000000000000000000000002F
:10419000000000000000000000000000000000001F
:1041A000000000000000000000000000000000000F
:1041B00000000000000000000000000000000000FF
:1041C00000000000000000000000000000000000EF
:1041D00000000000000000000000000000000000DF
:1041E00000000000000000000000000000000000CF
:1041F000000000000000000011847A030A68090131
:10420000020304060708090C691014181910320279
:1042100024A086011410014013C20114090AFF13DF
:10422000F0013A2019B10B10F00314C100101280F4
:10423000804020504844C3444850204080801C4067
:104240004044012A7F050B1140401F2B44C41A0033
:1042500008121010FF101010F0000F14103C131073
:1042600014B840300E014080403F1BF888012AFFFF
:10427000050215F81B1F08012A7F200B109F806183
:104280003B8082010F12E2A2928A8682C039A50386
:1042900018807F19B65DFF10900883021108080F7F
:1042A000110444827F01808040432C1028468160A5
:1042B0001941080B1110D030FF30D0121C10101F04
:1042C000250804020122FF0D10010204082100004C
:040000050800018965
:00000001FF
